{
  "_format": "hh-sol-artifact-1",
  "contractName": "IdentityManagement",
  "sourceName": "contracts/IdentityManagement.sol",
  "abi": [
    {
      "anonymous": false,
      "inputs": [
        {
          "indexed": true,
          "internalType": "uint256",
          "name": "id",
          "type": "uint256"
        },
        {
          "indexed": true,
          "internalType": "address",
          "name": "owner",
          "type": "address"
        },
        {
          "indexed": false,
          "internalType": "string",
          "name": "username",
          "type": "string"
        },
        {
          "indexed": false,
          "internalType": "string",
          "name": "publicKey",
          "type": "string"
        }
      ],
      "name": "IdentityCreated",
      "type": "event"
    },
    {
      "inputs": [
        {
          "internalType": "address",
          "name": "",
          "type": "address"
        }
      ],
      "name": "addressToIdentity",
      "outputs": [
        {
          "internalType": "uint256",
          "name": "",
          "type": "uint256"
        }
      ],
      "stateMutability": "view",
      "type": "function"
    },
    {
      "inputs": [
        {
          "internalType": "string",
          "name": "_username",
          "type": "string"
        },
        {
          "internalType": "string",
          "name": "_publicKey",
          "type": "string"
        }
      ],
      "name": "createIdentity",
      "outputs": [],
      "stateMutability": "nonpayable",
      "type": "function"
    },
    {
      "inputs": [
        {
          "internalType": "uint256",
          "name": "_identityId",
          "type": "uint256"
        }
      ],
      "name": "getIdentityDetails",
      "outputs": [
        {
          "components": [
            {
              "internalType": "uint256",
              "name": "id",
              "type": "uint256"
            },
            {
              "internalType": "address",
              "name": "owner",
              "type": "address"
            },
            {
              "internalType": "string",
              "name": "username",
              "type": "string"
            },
            {
              "internalType": "string",
              "name": "publicKey",
              "type": "string"
            },
            {
              "internalType": "bool",
              "name": "isVerified",
              "type": "bool"
            }
          ],
          "internalType": "struct IdentityManagement.Identity",
          "name": "",
          "type": "tuple"
        }
      ],
      "stateMutability": "view",
      "type": "function"
    },
    {
      "inputs": [
        {
          "internalType": "uint256",
          "name": "",
          "type": "uint256"
        }
      ],
      "name": "identities",
      "outputs": [
        {
          "internalType": "uint256",
          "name": "id",
          "type": "uint256"
        },
        {
          "internalType": "address",
          "name": "owner",
          "type": "address"
        },
        {
          "internalType": "string",
          "name": "username",
          "type": "string"
        },
        {
          "internalType": "string",
          "name": "publicKey",
          "type": "string"
        },
        {
          "internalType": "bool",
          "name": "isVerified",
          "type": "bool"
        }
      ],
      "stateMutability": "view",
      "type": "function"
    },
    {
      "inputs": [
        {
          "internalType": "uint256",
          "name": "_identityId",
          "type": "uint256"
        }
      ],
      "name": "verifyIdentity",
      "outputs": [],
      "stateMutability": "nonpayable",
      "type": "function"
    }
  ],
  "bytecode": "0x608060405234801561001057600080fd5b506111c7806100206000396000f3fe608060405234801561001057600080fd5b50600436106100575760003560e01c8063317931841461005c578063a309e6e11461008c578063babb55c5146100a8578063eaaf77e6146100c4578063eb4e9b09146100f8575b600080fd5b61007660048036038101906100719190610829565b610128565b60405161008391906109ce565b60405180910390f35b6100a660048036038101906100a19190610b25565b6102f3565b005b6100c260048036038101906100bd9190610829565b610537565b005b6100de60048036038101906100d99190610829565b61060d565b6040516100ef959493929190610c14565b60405180910390f35b610112600480360381019061010d9190610ca1565b610780565b60405161011f9190610cce565b60405180910390f35b610130610798565b6000808381526020019081526020016000206040518060a0016040529081600082015481526020016001820160009054906101000a900473ffffffffffffffffffffffffffffffffffffffff1673ffffffffffffffffffffffffffffffffffffffff1673ffffffffffffffffffffffffffffffffffffffff1681526020016002820180546101bd90610d18565b80601f01602080910402602001604051908101604052809291908181526020018280546101e990610d18565b80156102365780601f1061020b57610100808354040283529160200191610236565b820191906000526020600020905b81548152906001019060200180831161021957829003601f168201915b5050505050815260200160038201805461024f90610d18565b80601f016020809104026020016040519081016040528092919081815260200182805461027b90610d18565b80156102c85780601f1061029d576101008083540402835291602001916102c8565b820191906000526020600020905b8154815290600101906020018083116102ab57829003601f168201915b505050505081526020016004820160009054906101000a900460ff1615151515815250509050919050565b6000600160003373ffffffffffffffffffffffffffffffffffffffff1673ffffffffffffffffffffffffffffffffffffffff1681526020019081526020016000205414610375576040517f08c379a000000000000000000000000000000000000000000000000000000000815260040161036c90610dbb565b60405180910390fd5b6000334260405160200161038a929190610e44565b6040516020818303038152906040528051906020012060001c905060006040518060a001604052808381526020013373ffffffffffffffffffffffffffffffffffffffff168152602001858152602001848152602001600015158152509050806000808481526020019081526020016000206000820151816000015560208201518160010160006101000a81548173ffffffffffffffffffffffffffffffffffffffff021916908373ffffffffffffffffffffffffffffffffffffffff1602179055506040820151816002019081610462919061101c565b506060820151816003019081610478919061101c565b5060808201518160040160006101000a81548160ff02191690831515021790555090505081600160003373ffffffffffffffffffffffffffffffffffffffff1673ffffffffffffffffffffffffffffffffffffffff168152602001908152602001600020819055503373ffffffffffffffffffffffffffffffffffffffff16827f4014241546d7d94a19128c7c2f4efd1d42e91909bd98d3f8cd551abdeaead2cd86866040516105299291906110ee565b60405180910390a350505050565b8060008082815260200190815260200160002060010160009054906101000a900473ffffffffffffffffffffffffffffffffffffffff1673ffffffffffffffffffffffffffffffffffffffff163373ffffffffffffffffffffffffffffffffffffffff16146105db576040517f08c379a00000000000000000000000000000000000000000000000000000000081526004016105d290611171565b60405180910390fd5b600160008084815260200190815260200160002060040160006101000a81548160ff0219169083151502179055505050565b60006020528060005260406000206000915090508060000154908060010160009054906101000a900473ffffffffffffffffffffffffffffffffffffffff169080600201805461065c90610d18565b80601f016020809104026020016040519081016040528092919081815260200182805461068890610d18565b80156106d55780601f106106aa576101008083540402835291602001916106d5565b820191906000526020600020905b8154815290600101906020018083116106b857829003601f168201915b5050505050908060030180546106ea90610d18565b80601f016020809104026020016040519081016040528092919081815260200182805461071690610d18565b80156107635780601f1061073857610100808354040283529160200191610763565b820191906000526020600020905b81548152906001019060200180831161074657829003601f168201915b5050505050908060040160009054906101000a900460ff16905085565b60016020528060005260406000206000915090505481565b6040518060a0016040528060008152602001600073ffffffffffffffffffffffffffffffffffffffff16815260200160608152602001606081526020016000151581525090565b6000604051905090565b600080fd5b600080fd5b6000819050919050565b610806816107f3565b811461081157600080fd5b50565b600081359050610823816107fd565b92915050565b60006020828403121561083f5761083e6107e9565b5b600061084d84828501610814565b91505092915050565b61085f816107f3565b82525050565b600073ffffffffffffffffffffffffffffffffffffffff82169050919050565b600061089082610865565b9050919050565b6108a081610885565b82525050565b600081519050919050565b600082825260208201905092915050565b60005b838110156108e05780820151818401526020810190506108c5565b60008484015250505050565b6000601f19601f8301169050919050565b6000610908826108a6565b61091281856108b1565b93506109228185602086016108c2565b61092b816108ec565b840191505092915050565b60008115159050919050565b61094b81610936565b82525050565b600060a0830160008301516109696000860182610856565b50602083015161097c6020860182610897565b506040830151848203604086015261099482826108fd565b915050606083015184820360608601526109ae82826108fd565b91505060808301516109c36080860182610942565b508091505092915050565b600060208201905081810360008301526109e88184610951565b905092915050565b600080fd5b600080fd5b7f4e487b7100000000000000000000000000000000000000000000000000000000600052604160045260246000fd5b610a32826108ec565b810181811067ffffffffffffffff82111715610a5157610a506109fa565b5b80604052505050565b6000610a646107df565b9050610a708282610a29565b919050565b600067ffffffffffffffff821115610a9057610a8f6109fa565b5b610a99826108ec565b9050602081019050919050565b82818337600083830152505050565b6000610ac8610ac384610a75565b610a5a565b905082815260208101848484011115610ae457610ae36109f5565b5b610aef848285610aa6565b509392505050565b600082601f830112610b0c57610b0b6109f0565b5b8135610b1c848260208601610ab5565b91505092915050565b60008060408385031215610b3c57610b3b6107e9565b5b600083013567ffffffffffffffff811115610b5a57610b596107ee565b5b610b6685828601610af7565b925050602083013567ffffffffffffffff811115610b8757610b866107ee565b5b610b9385828601610af7565b9150509250929050565b610ba6816107f3565b82525050565b610bb581610885565b82525050565b600082825260208201905092915050565b6000610bd7826108a6565b610be18185610bbb565b9350610bf18185602086016108c2565b610bfa816108ec565b840191505092915050565b610c0e81610936565b82525050565b600060a082019050610c296000830188610b9d565b610c366020830187610bac565b8181036040830152610c488186610bcc565b90508181036060830152610c5c8185610bcc565b9050610c6b6080830184610c05565b9695505050505050565b610c7e81610885565b8114610c8957600080fd5b50565b600081359050610c9b81610c75565b92915050565b600060208284031215610cb757610cb66107e9565b5b6000610cc584828501610c8c565b91505092915050565b6000602082019050610ce36000830184610b9d565b92915050565b7f4e487b7100000000000000000000000000000000000000000000000000000000600052602260045260246000fd5b60006002820490506001821680610d3057607f821691505b602082108103610d4357610d42610ce9565b5b50919050565b7f4964656e7469747920616c72656164792065786973747320666f72207468697360008201527f2061646472657373000000000000000000000000000000000000000000000000602082015250565b6000610da5602883610bbb565b9150610db082610d49565b604082019050919050565b60006020820190508181036000830152610dd481610d98565b9050919050565b60008160601b9050919050565b6000610df382610ddb565b9050919050565b6000610e0582610de8565b9050919050565b610e1d610e1882610885565b610dfa565b82525050565b6000819050919050565b610e3e610e39826107f3565b610e23565b82525050565b6000610e508285610e0c565b601482019150610e608284610e2d565b6020820191508190509392505050565b60008190508160005260206000209050919050565b60006020601f8301049050919050565b600082821b905092915050565b600060088302610ed27fffffffffffffffffffffffffffffffffffffffffffffffffffffffffffffffff82610e95565b610edc8683610e95565b95508019841693508086168417925050509392505050565b6000819050919050565b6000610f19610f14610f0f846107f3565b610ef4565b6107f3565b9050919050565b6000819050919050565b610f3383610efe565b610f47610f3f82610f20565b848454610ea2565b825550505050565b600090565b610f5c610f4f565b610f67818484610f2a565b505050565b5b81811015610f8b57610f80600082610f54565b600181019050610f6d565b5050565b601f821115610fd057610fa181610e70565b610faa84610e85565b81016020851015610fb9578190505b610fcd610fc585610e85565b830182610f6c565b50505b505050565b600082821c905092915050565b6000610ff360001984600802610fd5565b1980831691505092915050565b600061100c8383610fe2565b9150826002028217905092915050565b611025826108a6565b67ffffffffffffffff81111561103e5761103d6109fa565b5b6110488254610d18565b611053828285610f8f565b600060209050601f8311600181146110865760008415611074578287015190505b61107e8582611000565b8655506110e6565b601f19841661109486610e70565b60005b828110156110bc57848901518255600182019150602085019450602081019050611097565b868310156110d957848901516110d5601f891682610fe2565b8355505b6001600288020188555050505b505050505050565b600060408201905081810360008301526111088185610bcc565b9050818103602083015261111c8184610bcc565b90509392505050565b7f4e6f7420746865206f776e6572206f6620746865206964656e74697479000000600082015250565b600061115b601d83610bbb565b915061116682611125565b602082019050919050565b6000602082019050818103600083015261118a8161114e565b905091905056fea2646970667358221220ba032a9bdac0e8a80aa2ac202980df76658429447e9227c463eb9eda42799a7f64736f6c63430008130033",
  "linkReferences": {},
  "deployedLinkReferences": {}
}