{
  "_format": "hh-sol-artifact-1",
  "contractName": "IdentityManagement",
  "sourceName": "contracts/IdentityManagement.sol",
  "abi": [
    {
      "anonymous": false,
      "inputs": [
        {
          "indexed": true,
          "internalType": "uint256",
          "name": "id",
          "type": "uint256"
        },
        {
          "indexed": true,
          "internalType": "address",
          "name": "owner",
          "type": "address"
        },
        {
          "indexed": false,
          "internalType": "string",
          "name": "email",
          "type": "string"
        },
        {
          "indexed": false,
          "internalType": "string",
          "name": "dateOfBirth",
          "type": "string"
        },
        {
          "indexed": false,
          "internalType": "string",
          "name": "username",
          "type": "string"
        }
      ],
      "name": "CredentialsVerified",
      "type": "event"
    },
    {
      "anonymous": false,
      "inputs": [
        {
          "indexed": true,
          "internalType": "uint256",
          "name": "id",
          "type": "uint256"
        },
        {
          "indexed": true,
          "internalType": "address",
          "name": "owner",
          "type": "address"
        },
        {
          "indexed": false,
          "internalType": "string",
          "name": "username",
          "type": "string"
        },
        {
          "indexed": false,
          "internalType": "string",
          "name": "publicKey",
          "type": "string"
        },
        {
          "indexed": false,
          "internalType": "string",
          "name": "email",
          "type": "string"
        },
        {
          "indexed": false,
          "internalType": "string",
          "name": "dateOfBirth",
          "type": "string"
        },
        {
          "indexed": false,
          "internalType": "bool",
          "name": "isVerified",
          "type": "bool"
        }
      ],
      "name": "IdentityCreated",
      "type": "event"
    },
    {
      "anonymous": false,
      "inputs": [
        {
          "indexed": true,
          "internalType": "uint256",
          "name": "id",
          "type": "uint256"
        },
        {
          "indexed": true,
          "internalType": "address",
          "name": "owner",
          "type": "address"
        },
        {
          "indexed": false,
          "internalType": "string",
          "name": "username",
          "type": "string"
        },
        {
          "indexed": false,
          "internalType": "string",
          "name": "publicKey",
          "type": "string"
        },
        {
          "indexed": false,
          "internalType": "string",
          "name": "email",
          "type": "string"
        },
        {
          "indexed": false,
          "internalType": "string",
          "name": "dateOfBirth",
          "type": "string"
        },
        {
          "indexed": false,
          "internalType": "bool",
          "name": "isVerified",
          "type": "bool"
        }
      ],
      "name": "IdentityUpdated",
      "type": "event"
    },
    {
      "inputs": [
        {
          "internalType": "address",
          "name": "",
          "type": "address"
        }
      ],
      "name": "addressToIdentity",
      "outputs": [
        {
          "internalType": "uint256",
          "name": "",
          "type": "uint256"
        }
      ],
      "stateMutability": "view",
      "type": "function"
    },
    {
      "inputs": [
        {
          "internalType": "uint256",
          "name": "",
          "type": "uint256"
        }
      ],
      "name": "allIdentities",
      "outputs": [
        {
          "internalType": "uint256",
          "name": "id",
          "type": "uint256"
        },
        {
          "internalType": "address",
          "name": "owner",
          "type": "address"
        },
        {
          "internalType": "string",
          "name": "username",
          "type": "string"
        },
        {
          "internalType": "string",
          "name": "publicKey",
          "type": "string"
        },
        {
          "internalType": "string",
          "name": "email",
          "type": "string"
        },
        {
          "internalType": "string",
          "name": "dateOfBirth",
          "type": "string"
        },
        {
          "internalType": "bool",
          "name": "isVerified",
          "type": "bool"
        }
      ],
      "stateMutability": "view",
      "type": "function"
    },
    {
      "inputs": [
        {
          "internalType": "string",
          "name": "_username",
          "type": "string"
        },
        {
          "internalType": "string",
          "name": "_publicKey",
          "type": "string"
        },
        {
          "internalType": "string",
          "name": "_email",
          "type": "string"
        },
        {
          "internalType": "string",
          "name": "_dateOfBirth",
          "type": "string"
        }
      ],
      "name": "createIdentity",
      "outputs": [],
      "stateMutability": "nonpayable",
      "type": "function"
    },
    {
      "inputs": [],
      "name": "getAllIdentities",
      "outputs": [
        {
          "components": [
            {
              "internalType": "uint256",
              "name": "id",
              "type": "uint256"
            },
            {
              "internalType": "address",
              "name": "owner",
              "type": "address"
            },
            {
              "internalType": "string",
              "name": "username",
              "type": "string"
            },
            {
              "internalType": "string",
              "name": "publicKey",
              "type": "string"
            },
            {
              "internalType": "string",
              "name": "email",
              "type": "string"
            },
            {
              "internalType": "string",
              "name": "dateOfBirth",
              "type": "string"
            },
            {
              "internalType": "bool",
              "name": "isVerified",
              "type": "bool"
            }
          ],
          "internalType": "struct IdentityManagement.Identity[]",
          "name": "",
          "type": "tuple[]"
        }
      ],
      "stateMutability": "view",
      "type": "function"
    },
    {
      "inputs": [
        {
          "internalType": "address",
          "name": "_walletAddress",
          "type": "address"
        }
      ],
      "name": "getIdentitiesByAddress",
      "outputs": [
        {
          "components": [
            {
              "internalType": "uint256",
              "name": "id",
              "type": "uint256"
            },
            {
              "internalType": "address",
              "name": "owner",
              "type": "address"
            },
            {
              "internalType": "string",
              "name": "username",
              "type": "string"
            },
            {
              "internalType": "string",
              "name": "publicKey",
              "type": "string"
            },
            {
              "internalType": "string",
              "name": "email",
              "type": "string"
            },
            {
              "internalType": "string",
              "name": "dateOfBirth",
              "type": "string"
            },
            {
              "internalType": "bool",
              "name": "isVerified",
              "type": "bool"
            }
          ],
          "internalType": "struct IdentityManagement.Identity[]",
          "name": "",
          "type": "tuple[]"
        }
      ],
      "stateMutability": "view",
      "type": "function"
    },
    {
      "inputs": [
        {
          "internalType": "uint256",
          "name": "_identityId",
          "type": "uint256"
        }
      ],
      "name": "getIdentityDetails",
      "outputs": [
        {
          "components": [
            {
              "internalType": "uint256",
              "name": "id",
              "type": "uint256"
            },
            {
              "internalType": "address",
              "name": "owner",
              "type": "address"
            },
            {
              "internalType": "string",
              "name": "username",
              "type": "string"
            },
            {
              "internalType": "string",
              "name": "publicKey",
              "type": "string"
            },
            {
              "internalType": "string",
              "name": "email",
              "type": "string"
            },
            {
              "internalType": "string",
              "name": "dateOfBirth",
              "type": "string"
            },
            {
              "internalType": "bool",
              "name": "isVerified",
              "type": "bool"
            }
          ],
          "internalType": "struct IdentityManagement.Identity",
          "name": "",
          "type": "tuple"
        }
      ],
      "stateMutability": "view",
      "type": "function"
    },
    {
      "inputs": [
        {
          "internalType": "uint256",
          "name": "",
          "type": "uint256"
        }
      ],
      "name": "identities",
      "outputs": [
        {
          "internalType": "uint256",
          "name": "id",
          "type": "uint256"
        },
        {
          "internalType": "address",
          "name": "owner",
          "type": "address"
        },
        {
          "internalType": "string",
          "name": "username",
          "type": "string"
        },
        {
          "internalType": "string",
          "name": "publicKey",
          "type": "string"
        },
        {
          "internalType": "string",
          "name": "email",
          "type": "string"
        },
        {
          "internalType": "string",
          "name": "dateOfBirth",
          "type": "string"
        },
        {
          "internalType": "bool",
          "name": "isVerified",
          "type": "bool"
        }
      ],
      "stateMutability": "view",
      "type": "function"
    },
    {
      "inputs": [
        {
          "internalType": "uint256",
          "name": "_identityId",
          "type": "uint256"
        },
        {
          "internalType": "string",
          "name": "_email",
          "type": "string"
        },
        {
          "internalType": "string",
          "name": "_dateOfBirth",
          "type": "string"
        }
      ],
      "name": "updateProfile",
      "outputs": [],
      "stateMutability": "nonpayable",
      "type": "function"
    },
    {
      "inputs": [
        {
          "internalType": "uint256",
          "name": "_identityId",
          "type": "uint256"
        },
        {
          "internalType": "string",
          "name": "_email",
          "type": "string"
        },
        {
          "internalType": "string",
          "name": "_dateOfBirth",
          "type": "string"
        },
        {
          "internalType": "string",
          "name": "_username",
          "type": "string"
        }
      ],
      "name": "verifyCredentials",
      "outputs": [],
      "stateMutability": "payable",
      "type": "function"
    },
    {
      "inputs": [
        {
          "internalType": "uint256",
          "name": "_identityId",
          "type": "uint256"
        }
      ],
      "name": "verifyIdentity",
      "outputs": [],
      "stateMutability": "nonpayable",
      "type": "function"
    }
  ],
  "bytecode": "0x608060405234801561001057600080fd5b5061343a806100206000396000f3fe6080604052600436106100915760003560e01c8063c0d74c7311610059578063c0d74c7314610179578063d18f3e6214610195578063eaaf77e6146101d2578063eb4e9b0914610215578063f07d0f091461025257610091565b806331793184146100965780637eeede35146100d357806388c6a956146100fe578063b39e31a514610127578063babb55c514610150575b600080fd5b3480156100a257600080fd5b506100bd60048036038101906100b891906123f9565b610295565b6040516100ca9190612fd4565b60405180910390f35b3480156100df57600080fd5b506100e86105df565b6040516100f59190612c99565b60405180910390f35b34801561010a57600080fd5b5061012560048036038101906101209190612422565b610901565b005b34801561013357600080fd5b5061014e60048036038101906101499190612336565b610d26565b005b34801561015c57600080fd5b50610177600480360381019061017291906123f9565b61117c565b005b610193600480360381019061018e91906124a1565b6113c8565b005b3480156101a157600080fd5b506101bc60048036038101906101b7919061230d565b61162b565b6040516101c99190612c99565b60405180910390f35b3480156101de57600080fd5b506101f960048036038101906101f491906123f9565b611c3d565b60405161020c9796959493929190613011565b60405180910390f35b34801561022157600080fd5b5061023c6004803603810190610237919061230d565b611ecc565b6040516102499190612ff6565b60405180910390f35b34801561025e57600080fd5b50610279600480360381019061027491906123f9565b611ee4565b60405161028c9796959493929190613011565b60405180910390f35b61029d612183565b6000600160008481526020019081526020016000206000015414156102f7576040517f08c379a00000000000000000000000000000000000000000000000000000000081526004016102ee90612fb4565b60405180910390fd5b600160008381526020019081526020016000206040518060e0016040529081600082015481526020016001820160009054906101000a900473ffffffffffffffffffffffffffffffffffffffff1673ffffffffffffffffffffffffffffffffffffffff1673ffffffffffffffffffffffffffffffffffffffff16815260200160028201805461038590613222565b80601f01602080910402602001604051908101604052809291908181526020018280546103b190613222565b80156103fe5780601f106103d3576101008083540402835291602001916103fe565b820191906000526020600020905b8154815290600101906020018083116103e157829003601f168201915b5050505050815260200160038201805461041790613222565b80601f016020809104026020016040519081016040528092919081815260200182805461044390613222565b80156104905780601f1061046557610100808354040283529160200191610490565b820191906000526020600020905b81548152906001019060200180831161047357829003601f168201915b505050505081526020016004820180546104a990613222565b80601f01602080910402602001604051908101604052809291908181526020018280546104d590613222565b80156105225780601f106104f757610100808354040283529160200191610522565b820191906000526020600020905b81548152906001019060200180831161050557829003601f168201915b5050505050815260200160058201805461053b90613222565b80601f016020809104026020016040519081016040528092919081815260200182805461056790613222565b80156105b45780601f10610589576101008083540402835291602001916105b4565b820191906000526020600020905b81548152906001019060200180831161059757829003601f168201915b505050505081526020016006820160009054906101000a900460ff1615151515815250509050919050565b60606000805480602002602001604051908101604052809291908181526020016000905b828210156108f857838290600052602060002090600702016040518060e0016040529081600082015481526020016001820160009054906101000a900473ffffffffffffffffffffffffffffffffffffffff1673ffffffffffffffffffffffffffffffffffffffff1673ffffffffffffffffffffffffffffffffffffffff16815260200160028201805461069690613222565b80601f01602080910402602001604051908101604052809291908181526020018280546106c290613222565b801561070f5780601f106106e45761010080835404028352916020019161070f565b820191906000526020600020905b8154815290600101906020018083116106f257829003601f168201915b5050505050815260200160038201805461072890613222565b80601f016020809104026020016040519081016040528092919081815260200182805461075490613222565b80156107a15780601f10610776576101008083540402835291602001916107a1565b820191906000526020600020905b81548152906001019060200180831161078457829003601f168201915b505050505081526020016004820180546107ba90613222565b80601f01602080910402602001604051908101604052809291908181526020018280546107e690613222565b80156108335780601f1061080857610100808354040283529160200191610833565b820191906000526020600020905b81548152906001019060200180831161081657829003601f168201915b5050505050815260200160058201805461084c90613222565b80601f016020809104026020016040519081016040528092919081815260200182805461087890613222565b80156108c55780601f1061089a576101008083540402835291602001916108c5565b820191906000526020600020905b8154815290600101906020018083116108a857829003601f168201915b505050505081526020016006820160009054906101000a900460ff16151515158152505081526020019060010190610603565b50505050905090565b826001600082815260200190815260200160002060010160009054906101000a900473ffffffffffffffffffffffffffffffffffffffff1673ffffffffffffffffffffffffffffffffffffffff163373ffffffffffffffffffffffffffffffffffffffff16146109a6576040517f08c379a000000000000000000000000000000000000000000000000000000000815260040161099d90612f74565b60405180910390fd5b600060016000868152602001908152602001600020600001541415610a00576040517f08c379a00000000000000000000000000000000000000000000000000000000081526004016109f790612fb4565b60405180910390fd5b6000835111610a44576040517f08c379a0000000000000000000000000000000000000000000000000000000008152600401610a3b90612f54565b60405180910390fd5b6000825111610a88576040517f08c379a0000000000000000000000000000000000000000000000000000000008152600401610a7f90612f14565b60405180910390fd5b600060016000868152602001908152602001600020905083816004019080519060200190610ab79291906121d8565b5082816005019080519060200190610ad09291906121d8565b5060008160060160006101000a81548160ff02191690831515021790555060005b600080549050811015610c8c578560008281548110610b39577f4e487b7100000000000000000000000000000000000000000000000000000000600052603260045260246000fd5b9060005260206000209060070201600001541415610c79578460008281548110610b8c577f4e487b7100000000000000000000000000000000000000000000000000000000600052603260045260246000fd5b90600052602060002090600702016004019080519060200190610bb09291906121d8565b508360008281548110610bec577f4e487b7100000000000000000000000000000000000000000000000000000000600052603260045260246000fd5b90600052602060002090600702016005019080519060200190610c109291906121d8565b506000808281548110610c4c577f4e487b7100000000000000000000000000000000000000000000000000000000600052603260045260246000fd5b906000526020600020906007020160060160006101000a81548160ff021916908315150217905550610c8c565b8080610c8490613254565b915050610af1565b508060010160009054906101000a900473ffffffffffffffffffffffffffffffffffffffff1673ffffffffffffffffffffffffffffffffffffffff16857fc4d595050b8af890e31274022a7dcb33664a95cea0738f7a52e3038c82d9d67b836002018460030188888760060160009054906101000a900460ff16604051610d17959493929190612d76565b60405180910390a35050505050565b6000845111610d6a576040517f08c379a0000000000000000000000000000000000000000000000000000000008152600401610d6190612e74565b60405180910390fd5b6000835111610dae576040517f08c379a0000000000000000000000000000000000000000000000000000000008152600401610da590612eb4565b60405180910390fd5b6000825111610df2576040517f08c379a0000000000000000000000000000000000000000000000000000000008152600401610de990612f54565b60405180910390fd5b6000815111610e36576040517f08c379a0000000000000000000000000000000000000000000000000000000008152600401610e2d90612f14565b60405180910390fd5b60003342604051602001610e4b929190612c56565b6040516020818303038152906040528051906020012060001c905064e8d4a5100081610e7791906132cb565b905060006040518060e001604052808381526020013373ffffffffffffffffffffffffffffffffffffffff16815260200187815260200186815260200185815260200184815260200160001515815250905080600160008481526020019081526020016000206000820151816000015560208201518160010160006101000a81548173ffffffffffffffffffffffffffffffffffffffff021916908373ffffffffffffffffffffffffffffffffffffffff1602179055506040820151816002019080519060200190610f4a9291906121d8565b506060820151816003019080519060200190610f679291906121d8565b506080820151816004019080519060200190610f849291906121d8565b5060a0820151816005019080519060200190610fa19291906121d8565b5060c08201518160060160006101000a81548160ff02191690831515021790555090505081600260003373ffffffffffffffffffffffffffffffffffffffff1673ffffffffffffffffffffffffffffffffffffffff1681526020019081526020016000208190555060008190806001815401808255809150506001900390600052602060002090600702016000909190919091506000820151816000015560208201518160010160006101000a81548173ffffffffffffffffffffffffffffffffffffffff021916908373ffffffffffffffffffffffffffffffffffffffff16021790555060408201518160020190805190602001906110a29291906121d8565b5060608201518160030190805190602001906110bf9291906121d8565b5060808201518160040190805190602001906110dc9291906121d8565b5060a08201518160050190805190602001906110f99291906121d8565b5060c08201518160060160006101000a81548160ff02191690831515021790555050503373ffffffffffffffffffffffffffffffffffffffff16827fce20e215a99d82ed1dc335e6fe45b11fbd314e9e68467826ccfd9049b964199988888888600060405161116c959493929190612d07565b60405180910390a3505050505050565b6000600160008381526020019081526020016000206000015414156111d6576040517f08c379a00000000000000000000000000000000000000000000000000000000081526004016111cd90612fb4565b60405180910390fd5b60006001600083815260200190815260200160002090508060060160009054906101000a900460ff161561123f576040517f08c379a000000000000000000000000000000000000000000000000000000000815260040161123690612ef4565b60405180910390fd5b60018160060160006101000a81548160ff02191690831515021790555060005b60008054905081101561133b5782600082815481106112a7577f4e487b7100000000000000000000000000000000000000000000000000000000600052603260045260246000fd5b9060005260206000209060070201600001541415611328576001600082815481106112fb577f4e487b7100000000000000000000000000000000000000000000000000000000600052603260045260246000fd5b906000526020600020906007020160060160006101000a81548160ff02191690831515021790555061133b565b808061133390613254565b91505061125f565b508060010160009054906101000a900473ffffffffffffffffffffffffffffffffffffffff1673ffffffffffffffffffffffffffffffffffffffff16827fc4d595050b8af890e31274022a7dcb33664a95cea0738f7a52e3038c82d9d67b8360020184600301856004018660050160016040516113bc959493929190612de5565b60405180910390a35050565b600060016000868152602001908152602001600020600001541415611422576040517f08c379a000000000000000000000000000000000000000000000000000000000815260040161141990612fb4565b60405180910390fd5b60006001600086815260200190815260200160002090508060060160009054906101000a900460ff1661148a576040517f08c379a000000000000000000000000000000000000000000000000000000000815260040161148190612f94565b60405180910390fd5b8380519060200120816004016040516114a39190612c82565b6040518091039020146114eb576040517f08c379a00000000000000000000000000000000000000000000000000000000081526004016114e290612e54565b60405180910390fd5b8280519060200120816005016040516115049190612c82565b60405180910390201461154c576040517f08c379a000000000000000000000000000000000000000000000000000000000815260040161154390612ed4565b60405180910390fd5b8180519060200120816002016040516115659190612c82565b6040518091039020146115ad576040517f08c379a00000000000000000000000000000000000000000000000000000000081526004016115a490612f34565b60405180910390fd5b8060010160009054906101000a900473ffffffffffffffffffffffffffffffffffffffff1673ffffffffffffffffffffffffffffffffffffffff16857fd292fc2286535ec26be3dfff54885ae4a73c8d6ffa0658c92dc24fcee6a2a89186868660405161161c93929190612cbb565b60405180910390a35050505050565b60606000600260008473ffffffffffffffffffffffffffffffffffffffff1673ffffffffffffffffffffffffffffffffffffffff16815260200190815260200160002054905060008114156116b5576040517f08c379a00000000000000000000000000000000000000000000000000000000081526004016116ac90612e94565b60405180910390fd5b6000805b600080549050811015611787578473ffffffffffffffffffffffffffffffffffffffff1660008281548110611717577f4e487b7100000000000000000000000000000000000000000000000000000000600052603260045260246000fd5b906000526020600020906007020160010160009054906101000a900473ffffffffffffffffffffffffffffffffffffffff1673ffffffffffffffffffffffffffffffffffffffff16141561177457818061177090613254565b9250505b808061177f90613254565b9150506116b9565b5060008167ffffffffffffffff8111156117ca577f4e487b7100000000000000000000000000000000000000000000000000000000600052604160045260246000fd5b60405190808252806020026020018201604052801561180357816020015b6117f0612183565b8152602001906001900390816117e85790505b5090506000805b600080549050811015611c30578673ffffffffffffffffffffffffffffffffffffffff1660008281548110611868577f4e487b7100000000000000000000000000000000000000000000000000000000600052603260045260246000fd5b906000526020600020906007020160010160009054906101000a900473ffffffffffffffffffffffffffffffffffffffff1673ffffffffffffffffffffffffffffffffffffffff161415611c1d57600081815481106118f0577f4e487b7100000000000000000000000000000000000000000000000000000000600052603260045260246000fd5b90600052602060002090600702016040518060e0016040529081600082015481526020016001820160009054906101000a900473ffffffffffffffffffffffffffffffffffffffff1673ffffffffffffffffffffffffffffffffffffffff1673ffffffffffffffffffffffffffffffffffffffff16815260200160028201805461197990613222565b80601f01602080910402602001604051908101604052809291908181526020018280546119a590613222565b80156119f25780601f106119c7576101008083540402835291602001916119f2565b820191906000526020600020905b8154815290600101906020018083116119d557829003601f168201915b50505050508152602001600382018054611a0b90613222565b80601f0160208091040260200160405190810160405280929190818152602001828054611a3790613222565b8015611a845780601f10611a5957610100808354040283529160200191611a84565b820191906000526020600020905b815481529060010190602001808311611a6757829003601f168201915b50505050508152602001600482018054611a9d90613222565b80601f0160208091040260200160405190810160405280929190818152602001828054611ac990613222565b8015611b165780601f10611aeb57610100808354040283529160200191611b16565b820191906000526020600020905b815481529060010190602001808311611af957829003601f168201915b50505050508152602001600582018054611b2f90613222565b80601f0160208091040260200160405190810160405280929190818152602001828054611b5b90613222565b8015611ba85780601f10611b7d57610100808354040283529160200191611ba8565b820191906000526020600020905b815481529060010190602001808311611b8b57829003601f168201915b505050505081526020016006820160009054906101000a900460ff161515151581525050838380611bd890613254565b945081518110611c11577f4e487b7100000000000000000000000000000000000000000000000000000000600052603260045260246000fd5b60200260200101819052505b8080611c2890613254565b91505061180a565b5081945050505050919050565b60016020528060005260406000206000915090508060000154908060010160009054906101000a900473ffffffffffffffffffffffffffffffffffffffff1690806002018054611c8c90613222565b80601f0160208091040260200160405190810160405280929190818152602001828054611cb890613222565b8015611d055780601f10611cda57610100808354040283529160200191611d05565b820191906000526020600020905b815481529060010190602001808311611ce857829003601f168201915b505050505090806003018054611d1a90613222565b80601f0160208091040260200160405190810160405280929190818152602001828054611d4690613222565b8015611d935780601f10611d6857610100808354040283529160200191611d93565b820191906000526020600020905b815481529060010190602001808311611d7657829003601f168201915b505050505090806004018054611da890613222565b80601f0160208091040260200160405190810160405280929190818152602001828054611dd490613222565b8015611e215780601f10611df657610100808354040283529160200191611e21565b820191906000526020600020905b815481529060010190602001808311611e0457829003601f168201915b505050505090806005018054611e3690613222565b80601f0160208091040260200160405190810160405280929190818152602001828054611e6290613222565b8015611eaf5780601f10611e8457610100808354040283529160200191611eaf565b820191906000526020600020905b815481529060010190602001808311611e9257829003601f168201915b5050505050908060060160009054906101000a900460ff16905087565b60026020528060005260406000206000915090505481565b60008181548110611ef457600080fd5b90600052602060002090600702016000915090508060000154908060010160009054906101000a900473ffffffffffffffffffffffffffffffffffffffff1690806002018054611f4390613222565b80601f0160208091040260200160405190810160405280929190818152602001828054611f6f90613222565b8015611fbc5780601f10611f9157610100808354040283529160200191611fbc565b820191906000526020600020905b815481529060010190602001808311611f9f57829003601f168201915b505050505090806003018054611fd190613222565b80601f0160208091040260200160405190810160405280929190818152602001828054611ffd90613222565b801561204a5780601f1061201f5761010080835404028352916020019161204a565b820191906000526020600020905b81548152906001019060200180831161202d57829003601f168201915b50505050509080600401805461205f90613222565b80601f016020809104026020016040519081016040528092919081815260200182805461208b90613222565b80156120d85780601f106120ad576101008083540402835291602001916120d8565b820191906000526020600020905b8154815290600101906020018083116120bb57829003601f168201915b5050505050908060050180546120ed90613222565b80601f016020809104026020016040519081016040528092919081815260200182805461211990613222565b80156121665780601f1061213b57610100808354040283529160200191612166565b820191906000526020600020905b81548152906001019060200180831161214957829003601f168201915b5050505050908060060160009054906101000a900460ff16905087565b6040518060e0016040528060008152602001600073ffffffffffffffffffffffffffffffffffffffff168152602001606081526020016060815260200160608152602001606081526020016000151581525090565b8280546121e490613222565b90600052602060002090601f016020900481019282612206576000855561224d565b82601f1061221f57805160ff191683800117855561224d565b8280016001018555821561224d579182015b8281111561224c578251825591602001919060010190612231565b5b50905061225a919061225e565b5090565b5b8082111561227757600081600090555060010161225f565b5090565b600061228e612289846130cd565b61309c565b9050828152602081018484840111156122a657600080fd5b6122b18482856131e0565b509392505050565b6000813590506122c8816133d6565b92915050565b600082601f8301126122df57600080fd5b81356122ef84826020860161227b565b91505092915050565b600081359050612307816133ed565b92915050565b60006020828403121561231f57600080fd5b600061232d848285016122b9565b91505092915050565b6000806000806080858703121561234c57600080fd5b600085013567ffffffffffffffff81111561236657600080fd5b612372878288016122ce565b945050602085013567ffffffffffffffff81111561238f57600080fd5b61239b878288016122ce565b935050604085013567ffffffffffffffff8111156123b857600080fd5b6123c4878288016122ce565b925050606085013567ffffffffffffffff8111156123e157600080fd5b6123ed878288016122ce565b91505092959194509250565b60006020828403121561240b57600080fd5b6000612419848285016122f8565b91505092915050565b60008060006060848603121561243757600080fd5b6000612445868287016122f8565b935050602084013567ffffffffffffffff81111561246257600080fd5b61246e868287016122ce565b925050604084013567ffffffffffffffff81111561248b57600080fd5b612497868287016122ce565b9150509250925092565b600080600080608085870312156124b757600080fd5b60006124c5878288016122f8565b945050602085013567ffffffffffffffff8111156124e257600080fd5b6124ee878288016122ce565b935050604085013567ffffffffffffffff81111561250b57600080fd5b612517878288016122ce565b925050606085013567ffffffffffffffff81111561253457600080fd5b612540878288016122ce565b91505092959194509250565b60006125588383612abf565b905092915050565b61256981613198565b82525050565b61257881613198565b82525050565b61258f61258a82613198565b61329d565b82525050565b60006125a082613137565b6125aa818561315a565b9350836020820285016125bc856130fd565b8060005b858110156125f857848403895281516125d9858261254c565b94506125e48361314d565b925060208a019950506001810190506125c0565b50829750879550505050505092915050565b612613816131aa565b82525050565b612622816131aa565b82525050565b6000815461263581613222565b61263f818661316b565b9450600182166000811461265a576001811461266b5761269e565b60ff1983168652818601935061269e565b6126748561310d565b60005b8381101561269657815481890152600182019150602081019050612677565b838801955050505b50505092915050565b60006126b282613142565b6126bc8185613176565b93506126cc8185602086016131ef565b6126d5816133b8565b840191505092915050565b60006126eb82613142565b6126f58185613187565b93506127058185602086016131ef565b61270e816133b8565b840191505092915050565b6000815461272681613222565b6127308186613187565b9450600182166000811461274b576001811461275d57612790565b60ff1983168652602086019350612790565b61276685613122565b60005b8381101561278857815481890152600182019150602081019050612769565b808801955050505b50505092915050565b60006127a6600b83613187565b91507f57726f6e6720656d61696c0000000000000000000000000000000000000000006000830152602082019050919050565b60006127e6601883613187565b91507f557365726e616d652063616e6e6f7420626520656d70747900000000000000006000830152602082019050919050565b6000612826603183613187565b91507f4e6f206964656e7469747920666f756e6420666f72207468652070726f76696460008301527f65642077616c6c657420616464726573730000000000000000000000000000006020830152604082019050919050565b600061288c601a83613187565b91507f5075626c6963206b65792063616e6e6f7420626520656d7074790000000000006000830152602082019050919050565b60006128cc601383613187565b91507f57726f6e672064617465206f66206269727468000000000000000000000000006000830152602082019050919050565b600061290c601c83613187565b91507f4964656e7469747920697320616c7265616479207665726966696564000000006000830152602082019050919050565b600061294c601d83613187565b91507f44617465206f662042697274682063616e6e6f7420626520656d7074790000006000830152602082019050919050565b600061298c600e83613187565b91507f57726f6e6720757365726e616d650000000000000000000000000000000000006000830152602082019050919050565b60006129cc601583613187565b91507f456d61696c2063616e6e6f7420626520656d70747900000000000000000000006000830152602082019050919050565b6000612a0c601d83613187565b91507f4e6f7420746865206f776e6572206f6620746865206964656e746974790000006000830152602082019050919050565b6000612a4c601883613187565b91507f4964656e74697479206973206e6f7420766572696669656400000000000000006000830152602082019050919050565b6000612a8c601783613187565b91507f4964656e7469747920646f6573206e6f742065786973740000000000000000006000830152602082019050919050565b600060e083016000830151612ad76000860182612c21565b506020830151612aea6020860182612560565b5060408301518482036040860152612b0282826126a7565b91505060608301518482036060860152612b1c82826126a7565b91505060808301518482036080860152612b3682826126a7565b91505060a083015184820360a0860152612b5082826126a7565b91505060c0830151612b6560c086018261260a565b508091505092915050565b600060e083016000830151612b886000860182612c21565b506020830151612b9b6020860182612560565b5060408301518482036040860152612bb382826126a7565b91505060608301518482036060860152612bcd82826126a7565b91505060808301518482036080860152612be782826126a7565b91505060a083015184820360a0860152612c0182826126a7565b91505060c0830151612c1660c086018261260a565b508091505092915050565b612c2a816131d6565b82525050565b612c39816131d6565b82525050565b612c50612c4b826131d6565b6132c1565b82525050565b6000612c62828561257e565b601482019150612c728284612c3f565b6020820191508190509392505050565b6000612c8e8284612628565b915081905092915050565b60006020820190508181036000830152612cb38184612595565b905092915050565b60006060820190508181036000830152612cd581866126e0565b90508181036020830152612ce981856126e0565b90508181036040830152612cfd81846126e0565b9050949350505050565b600060a0820190508181036000830152612d2181886126e0565b90508181036020830152612d3581876126e0565b90508181036040830152612d4981866126e0565b90508181036060830152612d5d81856126e0565b9050612d6c6080830184612619565b9695505050505050565b600060a0820190508181036000830152612d908188612719565b90508181036020830152612da48187612719565b90508181036040830152612db881866126e0565b90508181036060830152612dcc81856126e0565b9050612ddb6080830184612619565b9695505050505050565b600060a0820190508181036000830152612dff8188612719565b90508181036020830152612e138187612719565b90508181036040830152612e278186612719565b90508181036060830152612e3b8185612719565b9050612e4a6080830184612619565b9695505050505050565b60006020820190508181036000830152612e6d81612799565b9050919050565b60006020820190508181036000830152612e8d816127d9565b9050919050565b60006020820190508181036000830152612ead81612819565b9050919050565b60006020820190508181036000830152612ecd8161287f565b9050919050565b60006020820190508181036000830152612eed816128bf565b9050919050565b60006020820190508181036000830152612f0d816128ff565b9050919050565b60006020820190508181036000830152612f2d8161293f565b9050919050565b60006020820190508181036000830152612f4d8161297f565b9050919050565b60006020820190508181036000830152612f6d816129bf565b9050919050565b60006020820190508181036000830152612f8d816129ff565b9050919050565b60006020820190508181036000830152612fad81612a3f565b9050919050565b60006020820190508181036000830152612fcd81612a7f565b9050919050565b60006020820190508181036000830152612fee8184612b70565b905092915050565b600060208201905061300b6000830184612c30565b92915050565b600060e082019050613026600083018a612c30565b613033602083018961256f565b818103604083015261304581886126e0565b9050818103606083015261305981876126e0565b9050818103608083015261306d81866126e0565b905081810360a083015261308181856126e0565b905061309060c0830184612619565b98975050505050505050565b6000604051905081810181811067ffffffffffffffff821117156130c3576130c2613389565b5b8060405250919050565b600067ffffffffffffffff8211156130e8576130e7613389565b5b601f19601f8301169050602081019050919050565b6000819050602082019050919050565b60008190508160005260206000209050919050565b60008190508160005260206000209050919050565b600081519050919050565b600081519050919050565b6000602082019050919050565b600082825260208201905092915050565b600081905092915050565b600082825260208201905092915050565b600082825260208201905092915050565b60006131a3826131b6565b9050919050565b60008115159050919050565b600073ffffffffffffffffffffffffffffffffffffffff82169050919050565b6000819050919050565b82818337600083830152505050565b60005b8381101561320d5780820151818401526020810190506131f2565b8381111561321c576000848401525b50505050565b6000600282049050600182168061323a57607f821691505b6020821081141561324e5761324d61335a565b5b50919050565b600061325f826131d6565b91507fffffffffffffffffffffffffffffffffffffffffffffffffffffffffffffffff821415613292576132916132fc565b5b600182019050919050565b60006132a8826132af565b9050919050565b60006132ba826133c9565b9050919050565b6000819050919050565b60006132d6826131d6565b91506132e1836131d6565b9250826132f1576132f061332b565b5b828206905092915050565b7f4e487b7100000000000000000000000000000000000000000000000000000000600052601160045260246000fd5b7f4e487b7100000000000000000000000000000000000000000000000000000000600052601260045260246000fd5b7f4e487b7100000000000000000000000000000000000000000000000000000000600052602260045260246000fd5b7f4e487b7100000000000000000000000000000000000000000000000000000000600052604160045260246000fd5b6000601f19601f8301169050919050565b60008160601b9050919050565b6133df81613198565b81146133ea57600080fd5b50565b6133f6816131d6565b811461340157600080fd5b5056fea2646970667358221220ddcd3e137b8ab7a871a573574fa94b014f9ca4f8bbdf88d437164d9c05182b2664736f6c63430008000033",
  "linkReferences": {},
  "deployedLinkReferences": {}
}