{
  "_format": "hh-sol-artifact-1",
  "contractName": "IdentityManagement",
  "sourceName": "contracts/IdentityManagement.sol",
  "abi": [
    {
      "anonymous": false,
      "inputs": [
        {
          "indexed": true,
          "internalType": "uint256",
          "name": "id",
          "type": "uint256"
        },
        {
          "indexed": true,
          "internalType": "address",
          "name": "owner",
          "type": "address"
        },
        {
          "indexed": false,
          "internalType": "string",
          "name": "username",
          "type": "string"
        },
        {
          "indexed": false,
          "internalType": "string",
          "name": "publicKey",
          "type": "string"
        },
        {
          "indexed": false,
          "internalType": "string",
          "name": "email",
          "type": "string"
        },
        {
          "indexed": false,
          "internalType": "string",
          "name": "dateOfBirth",
          "type": "string"
        },
        {
          "indexed": false,
          "internalType": "bool",
          "name": "isVerified",
          "type": "bool"
        }
      ],
      "name": "IdentityCreated",
      "type": "event"
    },
    {
      "anonymous": false,
      "inputs": [
        {
          "indexed": true,
          "internalType": "uint256",
          "name": "id",
          "type": "uint256"
        },
        {
          "indexed": true,
          "internalType": "address",
          "name": "owner",
          "type": "address"
        },
        {
          "indexed": false,
          "internalType": "string",
          "name": "username",
          "type": "string"
        },
        {
          "indexed": false,
          "internalType": "string",
          "name": "publicKey",
          "type": "string"
        },
        {
          "indexed": false,
          "internalType": "string",
          "name": "email",
          "type": "string"
        },
        {
          "indexed": false,
          "internalType": "string",
          "name": "dateOfBirth",
          "type": "string"
        },
        {
          "indexed": false,
          "internalType": "bool",
          "name": "isVerified",
          "type": "bool"
        }
      ],
      "name": "IdentityUpdated",
      "type": "event"
    },
    {
      "inputs": [
        {
          "internalType": "address",
          "name": "",
          "type": "address"
        }
      ],
      "name": "addressToIdentity",
      "outputs": [
        {
          "internalType": "uint256",
          "name": "",
          "type": "uint256"
        }
      ],
      "stateMutability": "view",
      "type": "function"
    },
    {
      "inputs": [
        {
          "internalType": "string",
          "name": "_username",
          "type": "string"
        },
        {
          "internalType": "string",
          "name": "_publicKey",
          "type": "string"
        },
        {
          "internalType": "string",
          "name": "_email",
          "type": "string"
        },
        {
          "internalType": "string",
          "name": "_dateOfBirth",
          "type": "string"
        }
      ],
      "name": "createIdentity",
      "outputs": [],
      "stateMutability": "nonpayable",
      "type": "function"
    },
    {
      "inputs": [
        {
          "internalType": "uint256",
          "name": "_identityId",
          "type": "uint256"
        }
      ],
      "name": "getIdentityDetails",
      "outputs": [
        {
          "components": [
            {
              "internalType": "uint256",
              "name": "id",
              "type": "uint256"
            },
            {
              "internalType": "address",
              "name": "owner",
              "type": "address"
            },
            {
              "internalType": "string",
              "name": "username",
              "type": "string"
            },
            {
              "internalType": "string",
              "name": "publicKey",
              "type": "string"
            },
            {
              "internalType": "string",
              "name": "email",
              "type": "string"
            },
            {
              "internalType": "string",
              "name": "dateOfBirth",
              "type": "string"
            },
            {
              "internalType": "bool",
              "name": "isVerified",
              "type": "bool"
            }
          ],
          "internalType": "struct IdentityManagement.Identity",
          "name": "",
          "type": "tuple"
        }
      ],
      "stateMutability": "view",
      "type": "function"
    },
    {
      "inputs": [
        {
          "internalType": "uint256",
          "name": "",
          "type": "uint256"
        }
      ],
      "name": "identities",
      "outputs": [
        {
          "internalType": "uint256",
          "name": "id",
          "type": "uint256"
        },
        {
          "internalType": "address",
          "name": "owner",
          "type": "address"
        },
        {
          "internalType": "string",
          "name": "username",
          "type": "string"
        },
        {
          "internalType": "string",
          "name": "publicKey",
          "type": "string"
        },
        {
          "internalType": "string",
          "name": "email",
          "type": "string"
        },
        {
          "internalType": "string",
          "name": "dateOfBirth",
          "type": "string"
        },
        {
          "internalType": "bool",
          "name": "isVerified",
          "type": "bool"
        }
      ],
      "stateMutability": "view",
      "type": "function"
    },
    {
      "inputs": [
        {
          "internalType": "uint256",
          "name": "_identityId",
          "type": "uint256"
        },
        {
          "internalType": "string",
          "name": "_email",
          "type": "string"
        },
        {
          "internalType": "string",
          "name": "_dateOfBirth",
          "type": "string"
        }
      ],
      "name": "updateProfile",
      "outputs": [],
      "stateMutability": "nonpayable",
      "type": "function"
    },
    {
      "inputs": [
        {
          "internalType": "uint256",
          "name": "_identityId",
          "type": "uint256"
        }
      ],
      "name": "verifyIdentity",
      "outputs": [],
      "stateMutability": "nonpayable",
      "type": "function"
    }
  ],
  "bytecode": "0x608060405234801561001057600080fd5b50611773806100206000396000f3fe608060405234801561001057600080fd5b50600436106100625760003560e01c8063317931841461006757806388c6a95614610097578063b39e31a5146100b3578063babb55c5146100cf578063eaaf77e6146100eb578063eb4e9b0914610121575b600080fd5b610081600480360381019061007c9190610ef8565b610151565b60405161008e9190611402565b60405180910390f35b6100b160048036038101906100ac9190610f21565b610440565b005b6100cd60048036038101906100c89190610e35565b6105c5565b005b6100e960048036038101906100e49190610ef8565b610877565b005b61010560048036038101906101009190610ef8565b6109db565b604051610118979695949392919061143f565b60405180910390f35b61013b60048036038101906101369190610e0c565b610c6a565b6040516101489190611424565b60405180910390f35b610159610c82565b6000808381526020019081526020016000206040518060e0016040529081600082015481526020016001820160009054906101000a900473ffffffffffffffffffffffffffffffffffffffff1673ffffffffffffffffffffffffffffffffffffffff1673ffffffffffffffffffffffffffffffffffffffff1681526020016002820180546101e690611635565b80601f016020809104026020016040519081016040528092919081815260200182805461021290611635565b801561025f5780601f106102345761010080835404028352916020019161025f565b820191906000526020600020905b81548152906001019060200180831161024257829003601f168201915b5050505050815260200160038201805461027890611635565b80601f01602080910402602001604051908101604052809291908181526020018280546102a490611635565b80156102f15780601f106102c6576101008083540402835291602001916102f1565b820191906000526020600020905b8154815290600101906020018083116102d457829003601f168201915b5050505050815260200160048201805461030a90611635565b80601f016020809104026020016040519081016040528092919081815260200182805461033690611635565b80156103835780601f1061035857610100808354040283529160200191610383565b820191906000526020600020905b81548152906001019060200180831161036657829003601f168201915b5050505050815260200160058201805461039c90611635565b80601f01602080910402602001604051908101604052809291908181526020018280546103c890611635565b80156104155780601f106103ea57610100808354040283529160200191610415565b820191906000526020600020905b8154815290600101906020018083116103f857829003601f168201915b505050505081526020016006820160009054906101000a900460ff1615151515815250509050919050565b8260008082815260200190815260200160002060010160009054906101000a900473ffffffffffffffffffffffffffffffffffffffff1673ffffffffffffffffffffffffffffffffffffffff163373ffffffffffffffffffffffffffffffffffffffff16146104e4576040517f08c379a00000000000000000000000000000000000000000000000000000000081526004016104db906113e2565b60405180910390fd5b6000806000868152602001908152602001600020905083816004019080519060200190610512929190610cd7565b508281600501908051906020019061052b929190610cd7565b508060010160009054906101000a900473ffffffffffffffffffffffffffffffffffffffff1673ffffffffffffffffffffffffffffffffffffffff16857fc4d595050b8af890e31274022a7dcb33664a95cea0738f7a52e3038c82d9d67b836002018460030188888760060160009054906101000a900460ff166040516105b69594939291906112e4565b60405180910390a35050505050565b6000600160003373ffffffffffffffffffffffffffffffffffffffff1673ffffffffffffffffffffffffffffffffffffffff1681526020019081526020016000205414610647576040517f08c379a000000000000000000000000000000000000000000000000000000000815260040161063e906113c2565b60405180910390fd5b6000600143610656919061156d565b40604051602001610667919061125a565b60405160208183030381529060405280519060200120905060008160001c905060006040518060e001604052808381526020013373ffffffffffffffffffffffffffffffffffffffff168152602001888152602001878152602001868152602001858152602001600015158152509050806000808481526020019081526020016000206000820151816000015560208201518160010160006101000a81548173ffffffffffffffffffffffffffffffffffffffff021916908373ffffffffffffffffffffffffffffffffffffffff1602179055506040820151816002019080519060200190610757929190610cd7565b506060820151816003019080519060200190610774929190610cd7565b506080820151816004019080519060200190610791929190610cd7565b5060a08201518160050190805190602001906107ae929190610cd7565b5060c08201518160060160006101000a81548160ff02191690831515021790555090505081600160003373ffffffffffffffffffffffffffffffffffffffff1673ffffffffffffffffffffffffffffffffffffffff168152602001908152602001600020819055503373ffffffffffffffffffffffffffffffffffffffff16827fce20e215a99d82ed1dc335e6fe45b11fbd314e9e68467826ccfd9049b9641999898989896000604051610866959493929190611275565b60405180910390a350505050505050565b8060008082815260200190815260200160002060010160009054906101000a900473ffffffffffffffffffffffffffffffffffffffff1673ffffffffffffffffffffffffffffffffffffffff163373ffffffffffffffffffffffffffffffffffffffff161461091b576040517f08c379a0000000000000000000000000000000000000000000000000000000008152600401610912906113e2565b60405180910390fd5b6000806000848152602001908152602001600020905060018160060160006101000a81548160ff0219169083151502179055508060010160009054906101000a900473ffffffffffffffffffffffffffffffffffffffff1673ffffffffffffffffffffffffffffffffffffffff16837fc4d595050b8af890e31274022a7dcb33664a95cea0738f7a52e3038c82d9d67b8360020184600301856004018660050160016040516109ce959493929190611353565b60405180910390a3505050565b60006020528060005260406000206000915090508060000154908060010160009054906101000a900473ffffffffffffffffffffffffffffffffffffffff1690806002018054610a2a90611635565b80601f0160208091040260200160405190810160405280929190818152602001828054610a5690611635565b8015610aa35780601f10610a7857610100808354040283529160200191610aa3565b820191906000526020600020905b815481529060010190602001808311610a8657829003601f168201915b505050505090806003018054610ab890611635565b80601f0160208091040260200160405190810160405280929190818152602001828054610ae490611635565b8015610b315780601f10610b0657610100808354040283529160200191610b31565b820191906000526020600020905b815481529060010190602001808311610b1457829003601f168201915b505050505090806004018054610b4690611635565b80601f0160208091040260200160405190810160405280929190818152602001828054610b7290611635565b8015610bbf5780601f10610b9457610100808354040283529160200191610bbf565b820191906000526020600020905b815481529060010190602001808311610ba257829003601f168201915b505050505090806005018054610bd490611635565b80601f0160208091040260200160405190810160405280929190818152602001828054610c0090611635565b8015610c4d5780601f10610c2257610100808354040283529160200191610c4d565b820191906000526020600020905b815481529060010190602001808311610c3057829003601f168201915b5050505050908060060160009054906101000a900460ff16905087565b60016020528060005260406000206000915090505481565b6040518060e0016040528060008152602001600073ffffffffffffffffffffffffffffffffffffffff168152602001606081526020016060815260200160608152602001606081526020016000151581525090565b828054610ce390611635565b90600052602060002090601f016020900481019282610d055760008555610d4c565b82601f10610d1e57805160ff1916838001178555610d4c565b82800160010185558215610d4c579182015b82811115610d4b578251825591602001919060010190610d30565b5b509050610d599190610d5d565b5090565b5b80821115610d76576000816000905550600101610d5e565b5090565b6000610d8d610d88846114fb565b6114ca565b905082815260208101848484011115610da557600080fd5b610db08482856115f3565b509392505050565b600081359050610dc78161170f565b92915050565b600082601f830112610dde57600080fd5b8135610dee848260208601610d7a565b91505092915050565b600081359050610e0681611726565b92915050565b600060208284031215610e1e57600080fd5b6000610e2c84828501610db8565b91505092915050565b60008060008060808587031215610e4b57600080fd5b600085013567ffffffffffffffff811115610e6557600080fd5b610e7187828801610dcd565b945050602085013567ffffffffffffffff811115610e8e57600080fd5b610e9a87828801610dcd565b935050604085013567ffffffffffffffff811115610eb757600080fd5b610ec387828801610dcd565b925050606085013567ffffffffffffffff811115610ee057600080fd5b610eec87828801610dcd565b91505092959194509250565b600060208284031215610f0a57600080fd5b6000610f1884828501610df7565b91505092915050565b600080600060608486031215610f3657600080fd5b6000610f4486828701610df7565b935050602084013567ffffffffffffffff811115610f6157600080fd5b610f6d86828701610dcd565b925050604084013567ffffffffffffffff811115610f8a57600080fd5b610f9686828701610dcd565b9150509250925092565b610fa9816115a1565b82525050565b610fb8816115a1565b82525050565b610fc7816115b3565b82525050565b610fd6816115b3565b82525050565b610fed610fe8826115bf565b611667565b82525050565b6000610ffe82611540565b611008818561154b565b9350611018818560208601611602565b611021816116fe565b840191505092915050565b600061103782611540565b611041818561155c565b9350611051818560208601611602565b61105a816116fe565b840191505092915050565b6000815461107281611635565b61107c818661155c565b9450600182166000811461109757600181146110a9576110dc565b60ff19831686526020860193506110dc565b6110b28561152b565b60005b838110156110d4578154818901526001820191506020810190506110b5565b808801955050505b50505092915050565b60006110f260288361155c565b91507f4964656e7469747920616c72656164792065786973747320666f72207468697360008301527f20616464726573730000000000000000000000000000000000000000000000006020830152604082019050919050565b6000611158601d8361155c565b91507f4e6f7420746865206f776e6572206f6620746865206964656e746974790000006000830152602082019050919050565b600060e0830160008301516111a3600086018261123c565b5060208301516111b66020860182610fa0565b50604083015184820360408601526111ce8282610ff3565b915050606083015184820360608601526111e88282610ff3565b915050608083015184820360808601526112028282610ff3565b91505060a083015184820360a086015261121c8282610ff3565b91505060c083015161123160c0860182610fbe565b508091505092915050565b611245816115e9565b82525050565b611254816115e9565b82525050565b60006112668284610fdc565b60208201915081905092915050565b600060a082019050818103600083015261128f818861102c565b905081810360208301526112a3818761102c565b905081810360408301526112b7818661102c565b905081810360608301526112cb818561102c565b90506112da6080830184610fcd565b9695505050505050565b600060a08201905081810360008301526112fe8188611065565b905081810360208301526113128187611065565b90508181036040830152611326818661102c565b9050818103606083015261133a818561102c565b90506113496080830184610fcd565b9695505050505050565b600060a082019050818103600083015261136d8188611065565b905081810360208301526113818187611065565b905081810360408301526113958186611065565b905081810360608301526113a98185611065565b90506113b86080830184610fcd565b9695505050505050565b600060208201905081810360008301526113db816110e5565b9050919050565b600060208201905081810360008301526113fb8161114b565b9050919050565b6000602082019050818103600083015261141c818461118b565b905092915050565b6000602082019050611439600083018461124b565b92915050565b600060e082019050611454600083018a61124b565b6114616020830189610faf565b8181036040830152611473818861102c565b90508181036060830152611487818761102c565b9050818103608083015261149b818661102c565b905081810360a08301526114af818561102c565b90506114be60c0830184610fcd565b98975050505050505050565b6000604051905081810181811067ffffffffffffffff821117156114f1576114f06116cf565b5b8060405250919050565b600067ffffffffffffffff821115611516576115156116cf565b5b601f19601f8301169050602081019050919050565b60008190508160005260206000209050919050565b600081519050919050565b600082825260208201905092915050565b600082825260208201905092915050565b6000611578826115e9565b9150611583836115e9565b92508282101561159657611595611671565b5b828203905092915050565b60006115ac826115c9565b9050919050565b60008115159050919050565b6000819050919050565b600073ffffffffffffffffffffffffffffffffffffffff82169050919050565b6000819050919050565b82818337600083830152505050565b60005b83811015611620578082015181840152602081019050611605565b8381111561162f576000848401525b50505050565b6000600282049050600182168061164d57607f821691505b60208210811415611661576116606116a0565b5b50919050565b6000819050919050565b7f4e487b7100000000000000000000000000000000000000000000000000000000600052601160045260246000fd5b7f4e487b7100000000000000000000000000000000000000000000000000000000600052602260045260246000fd5b7f4e487b7100000000000000000000000000000000000000000000000000000000600052604160045260246000fd5b6000601f19601f8301169050919050565b611718816115a1565b811461172357600080fd5b50565b61172f816115e9565b811461173a57600080fd5b5056fea26469706673582212209ce08ee81d85e795c251656c85fff03078e4baaf48bacb86631b54146bd6eddf64736f6c63430008000033",
  "linkReferences": {},
  "deployedLinkReferences": {}
}